:020000021000EC
:108000000040002099020200D5020200D7020200BF
:108010000000000000000000000000000000000060
:10802000000000000000000000000000D902020073
:108030000000000000000000DB020200DD02020080
:10804000DF02020001B3010051090200DF02020059
:10805000DF0202000000000011030200DF02020044
:10806000DF020200D50B0200D9070200DF02020086
:10807000DF020200DF020200DF020200DF02020074
:10808000DF020200DF020200DF020200DF02020064
:10809000DF02020015E90100A9F50100DF0202007C
:1080A000DF020200DF02020000000000000000000A
:1080B00000000000000000000000000000000000C0
:1080C00010B5064C2378002B07D1054B002B02D0AE
:1080D000044800E000BF0123237010BDB020002041
:1080E0000000000008AA0200044B10B5002B03D0CA
:1080F0000349044800E000BF10BDC0460000000076
:10810000B420002008AA0200164B002B00D1144B0B
:108110009D46402292029A1A924600218B460F46B3
:108120001348144A121A11F043F80F4B002B00D0D9
:1081300098470E4B002B00D09847002000210400E8
:108140000D000D48002802D00C4800E000BF0DF0E3
:10815000E9F82000290010F0E3FD0DF0CDF8C0464D
:1081600000000800004000200000000000000000A7
:10817000A82000206028002000000000000000006F
:1081800010B50400034B036040300DF0CBFE20001F
:1081900010BDC046F893020030B51A4B02001C68AF
:1081A00085B000230221050020000DF025FD01000F
:1081B000200000F0E3FC144C1449002D00D01449B9
:1081C00003A801F087FAC82203A95200200002F098
:1081D00089FC03A80DF0A6FEFA20800001F048F803
:1081E0000C4903A80DF069FF002203A90192009237
:1081F0001300200002F0AAFC03A80DF051FF05B007
:1082000030BDC04658240020D02100201EA402000A
:1082100020A40200D820002010B5044B18680DF0EF
:10822000B3FC1F2001F024F8F7E7C04658240020D3
:1082300030B5154B02001D6885B0002301210400F4
:1082400028000DF0D9FC0100280000F097FC0F4D2C
:10825000002C10D10E4903A80DF02FFF230022009F
:108260000194009403A9280002F070FC03A80DF00B
:1082700017FF05B030BD074903A80DF01EFF00220F
:10828000019200921300EDE758240020D021002035
:1082900064240020D8200020F0B5C217831885B0D0
:1082A0005340254D1D2B2FDD03005A33B42B2BD803
:1082B000224B1C78002C27D12722C3179343143359
:1082C000C61A1F4B32001F680421230038000DF02E
:1082D00093FC0100380000F051FC012319492B7078
:1082E000194D002E00DB194903A80DF0E6FE23000E
:1082F000220028000194009403A902F027FC03A89F
:108300000DF0CEFE05B0F0BD2B78002BFAD0002387
:108310002B700F4D0F4829000DF0E6FE041EF1D121
:10832000290003A80DF0C9FE019400942300220047
:1083300003A90548E1E7C046AE270020AF2700208B
:108340005824002060240020D0210020D4200020C8
:10835000D82000204422002000B58BB00290039169
:10836000049202A9102206A8059310F005FF08A99F
:108370000822684610F000FF0349069A079B086828
:108380000DF088FB0BB000BDCC2000201FB50549C7
:10839000054810F0DAFB054B012118680DF038FC98
:1083A00005B000BD25A40200E420002058240020D0
:1083B0001FB50549054810F0C8FB054B002118689A
:1083C0000DF026FC05B000BD22A40200E420002030
:1083D0005824002000B58BB002900391049202A9AA
:1083E000102206A8059310F0C7FE08A908226846C7
:1083F00010F0C2FE0349069A079B08680DF04AFB7D
:108400000BB000BDCC200020F0B585B01F000AAB3A
:108410001B880600029115000393002F1BD0282013
:1084200010F070FE6B4604001989039BAAB20093FA
:108430003B000DF017FD336821005B683000984762
:10844000002806D020000DF023FD200010F04BFE88
:10845000024805B0F0BD0248FBE7C04616FCFFFF2E
:1084600017FCFFFFF0B5C217831885B05340254DA8
:108470001D2B2FDD03005A33B42B2BD8224B1C7835
:10848000002C27D13B22C31793431E33C61A1F4B20
:1084900032001F680321230038000DF0ADFB0100FE
:1084A000380000F06BFB012319492B70194D002E89
:1084B00000DB194903A80DF000FE2300220028006C
:1084C0000194009403A902F041FB03A80DF0E8FD1C
:1084D00005B0F0BD2B78002BFAD000232B700F4D88
:1084E0000F4829000DF000FE041EF1D1290003A859
:1084F0000DF0E3FD019400942300220003A9054838
:10850000E1E7C046AF270020AE2700205824002016
:108510005C240020D0210020DC200020D820002076
:108520004422002003005A33F7B50F00B42B2AD899
:108530000B005A33B42B26D80A260A235A21124C90
:10854000019000965B425A22494220680DF0D9FA08
:108550000A235A210197009605005B425A2249429C
:1085600020680DF0CEFA094A030012680521507008
:108570001570074A14682A0020000DF03DFB010029
:10858000200000F0FBFAF7BDCC200020D020002016
:108590005824002070B5144C20680DF0AEFAFF2866
:1085A0000DD1E424114D6400285901F09BFCFFF724
:1085B00073FE285901F0ACFCFFF754FF70BD206832
:1085C0000DF09BFA0028F9D1E424084D64002859E5
:1085D00001F09EFC0600285901F084FC01003000E7
:1085E000FFF7A0FFEAE7C046CC200020E0200020F3
:1085F0007FB5314E300000F0CDF90C2010F082FD37
:1086000004000DF044FA2D4D30202C6010F07AFD5E
:10861000040031000DF081FA294B02201C6010F09B
:1086200071FD0024274B047018604470142000F082
:108630002BFF1026244B0100C360244B4360244BC6
:10864000036028680DF05BFA224903A80DF035FDA0
:108650002300220003A9019400941F4802F076FA37
:1086600003A80DF01DFD1D4D1D4B2200012100969C
:108670002800FFF7C9FE1B4B0322022100962800A9
:10868000FFF7C2FEFA21184B01228900009628004C
:10869000FFF7BAFEFA2100968900144B0222280047
:1086A000FFF7B2FE124913480DF003FBFFF772FF0C
:1086B0003E2000F0DDFDF9E7E0200020CC20002086
:1086C00058240020D020002031820100998101002F
:1086D00099820100D8200020D0210020B021002064
:1086E00059830100D58301008D830100B18301000E
:1086F000619301001982010070B5244E24493000B5
:1087000001F0D4F8234C244D22002900300010F051
:10871000F2FC224E2249300001F0C8F82200290064
:10872000300010F0E8FC1F4E1F49300001F0BEF889
:1087300022002900300010F0DEFC1C4E1C493000E5
:1087400001F0B4F822002900300010F0D4FC194EDA
:108750001949300001F0AAF822002900300010F079
:10876000CAFC164E1649300001F0A0F8220029007C
:10877000300010F0C0FC134D280000F053F8280022
:108780002200114910F0B7FC70BDC046D82000206F
:1087900074A2020000200020A160020064240020D6
:1087A000BBA20200DC20002002A302005C24002007
:1087B00049A302006024002090A30200D4200020DE
:1087C000D7A30200E0200020CD870100CA23144A6D
:1087D0009B0010B5C2501C330400C0180DF0A2FB62
:1087E000D0239B00E0180DF09DFB20009130FF305E
:1087F00001F012FC20006930FF3001F00DFC200078
:10880000F03001F08BFF2000D03002F069FB200037
:10881000643007F0ADFC201DFFF7B2FC200010BD56
:10882000849802001423F0B5040093B00093192239
:108830001821043002F0C4FD220025002600643215
:10884000B435132110001092B83607F09DFC2800B3
:108850000EF0DDFD00221E2130000EF04BFA20004C
:10886000D03002F05DFB2200F03211920621464A20
:10887000119801F077FF20000027012369301A00CA
:1088800000971121FF3001F0D3FB200091300097B9
:10889000012302221A21FF3001F0CAFB2000B93067
:1088A0001A2301210222FF3002F0F6FB300001F012
:1088B0002BF9E4225200A050300001F013FCE62313
:1088C0005B00E0500100E42220005200D130119BF7
:1088D000A2580095FF3001F055FE2000E13029003C
:1088E0001C22FF3002F0ECFF192320000F93013B04
:1088F0000E93013B0D93013B0C93013B0B93013B0A
:108900000A93013B0993013B0893013B0793013B09
:108910000693013B0593013B0493013B0393013B09
:108920000293013B0193F930013B08220093072198
:10893000013BFF300EF0FFF9CA239B00E01829002D
:1089400003F0CEFFD3239B00E0181D2102F074FC3E
:10895000DD239B00E75010982770032110F0BDF82D
:1089600023002200200009499C33A0321C601160C2
:108970005760074A80305A610221012207F07AFDD0
:10898000200013B0F0BDC04600940200A9590200B7
:10899000935902000123F0B5067891B004001E40FF
:1089A00060D10300D0331800039300F043FB00F0C4
:1089B00069FA282010F0A6FB050010300DF043FBEB
:1089C000664B18202B6010F09DFB0700644B046081
:1089D000082231000C300E930F9610F0E9FB0EA91F
:1089E000381D082210F0C8FB5E4BAF607B6112237C
:1089F000EE60AB802E626E622900039802F004FAEA
:108A0000002805D028000DF043FA280010F06BFB79
:108A1000012322785449134323702300B4331800F0
:108A200004930EF0FAFC5149029004980EF0F5FC04
:108A300000270690642000F01BFC3D003E00230050
:108A40006933FF33180005930DF048FD00280BD162
:108A5000029B002B11D1069B002B0ED144494548A7
:108A600000F0E6FC11B0F0BD20009130FF300DF0B9
:108A700035FD0028ECD0182EEADC2000653029B244
:108A80003AB2FF23FF30013500F0A2FEEDB23220F2
:108A900000F0EEFB0136052D02D100250137FFB2B3
:108AA000029B192E06D0002BC9D02F49049802F042
:108AB0009BFE01E0002BF8D1029810F014FB069801
:108AC00010F011FB2A492C4800F0B2FCCA239B008D
:108AD000E3180793DD239B00E3580893002B36D15E
:108AE00000F0E4F801000AA800F0F4FD0DF0A5F88C
:108AF00008900DF0A2F86B460990198C0CA80DF0A7
:108B00002EFA099B0DA8190C0DF029FA0DAA0CA933
:108B10000BA80DF075FA0DA80DF004FA0CA80DF0D5
:108B200001FA01230BAA0AA900930798039B03F0FB
:108B30002DFF0BA80DF0F6F90AA80DF0F3F9CC23E0
:108B40009B00E3580893DD23089A9B00E250210024
:108B5000059AF031079804F009F970E7FD03000069
:108B60001B5A0200DB59020068A4020073A4020031
:108B70000020002008000020001C0020F0B50400A8
:108B800085B00320039110F0B2FA03220399070085
:108B900010F0F2FA226AA369043A934209D0002B3A
:108BA00000D01F600433A361039800F0A1FC05B05E
:108BB000F0BD636A22686668991A8910711A0129E2
:108BC00025D861695D1AAD10681C451C01906800CC
:108BD000864239D9751B6D08AD00551904335A1AF0
:108BE000A94228D9280099422BD1802228492B68F4
:108BF0008C469200E3609B182361019B656163448E
:108C00009B00ED182B686562E3619B18236280204E
:108C10008000656A10F076FA6860A369002B00D0C6
:108C20001F60636A1A1D626280225B6892009A1854
:108C3000E3612262B7E7019880009942D5D0801A9B
:108C4000281810F0A2FAD0E70123002E00D033003C
:108C50000236F6180E4B9E4201D910F069FAB000A8
:108C600010F050FA751B636A6D086169AD001A1D3A
:108C7000029045198A4203D0521A280010F085FA52
:108C8000206810F030FA029B66602360ADE7C046B2
:108C9000FFFFFF3FBFF34F8F024B034ADA60BFF382
:108CA0004F8FFEE700ED00E00400FA05F0B58DB04F
:108CB00005AF19221549380010F05EFA0022144B56
:108CC00005245A7180225205566E01222500019416
:108CD000029203930199300008F00CF90800029900
:108CE00008F082F8019B03996B430193029B361AAB
:108CF0006B430293631E2C1B6C433C19225C1C1EAD
:108D0000CA54E7D108000DB0F0BDC04683A40200EC
:108D1000B0270020F0B597B018220021060010A857
:108D200010F046FA132110A810F065F8032110A8DE
:108D300010F0F7F84C4B1B68002B00D10133DBB26D
:108D400002934A4A012300210BA807F001FD484B7A
:108D50009E4200D9002672B6464B64211D68464BE0
:108D600030000793052408F0C9F8604350302818F4
:108D700008900A21300008F0C1F80A2108F0A4F98F
:108D8000614350316918099130000A2108F09CF9BB
:108D9000802361430024503169189B010A9101939B
:108DA000029B002B5DD0002500272E1F07AB9B19CF
:108DB0000593032C03D1802300249B01019307AB6F
:108DC0005B592E4A03936300D318049300231900C0
:108DD00006205843049A16187678B4466246039ED5
:108DE000B25C10269446049A105C62460641164214
:108DF00002D00120984001430133092BE8D1C94337
:108E00001F4B059A090119401268039B934225D113
:108E1000312F23DC00210BA810F03CF9FA23159A1E
:108E20001199DB00106801421BD0013B002BF9D1E6
:108E3000019B01345B000193FA230137E4B25B002C
:108E40009F42B6D10435102DAED1074B1B68002BC5
:108E5000A6D0029F013FFBB20293A1E7019B1943F9
:108E6000D9E7FFF717FFC0466C240020F0FF000091
:108E7000E703000004200020D2A402009CA402000A
:108E8000F01F0000F8B50023124C23600CF0C7FE61
:108E9000002808D0042120000CF0BDFE002801D0DD
:108EA0000D4B2360F8BD0122A12704250B4B0C4973
:108EB0001A602268FF0048604E68002EFCD0DE5920
:108EC0001202013D3243002DF5D1226001225A6089
:108ED000E8E7C04668240020ED5EBC0B00D00040EF
:108EE000FCD000400B4B70B51C68002C10D0656D99
:108EF00000F0ACFBA36C002901D1834206D820000E
:108F00000CF0C0FE044920000CF0AAFE2C00ECE797
:108F100070BDC0467424002094240020F0B593B0A6
:108F200007932A4B04AC1E68049005910692002E0C
:108F30004AD0274B258867881C6800230293002CA1
:108F40002ED0636D23480393A36C9AB2A36C1B0CC1
:108F500099B2854214D12048824211D1002B01D010
:108F6000B9420BD1029B002B08D120000CF08AFEE5
:108F70001A4920000CF074FE01230293039CDEE7E3
:108F8000002A01D09542F9D1002B01D0B942F5D188
:108F900020000CF077FE114920000CF061FEEDE797
:108FA0000F4BEB18012B0FD910233A000093290027
:108FB0000C4B08A80CF056FF336808A99B683000DA
:108FC000984708A80CF064FF13B0F0BD702400208F
:108FD000A0240020FE030000FF03000094240020D2
:108FE00002FCFFFF1D8F010010B572B60B4B1C6811
:108FF000002C08D020000CF045FE0023E364084B51
:109000002000E36310BD62B65C2010F07BF85C22A8
:109010000021040010F0CCF8EFE7C04698240020AF
:1090200000400020024B1878012318407047C046CA
:10903000B6270020F7B50600FFF7F4FF051E33D171
:109040001A4C2660FFF7D0FF194B1A4918600CF034
:1090500007FEFFF7C9FF184B1860184B4363184B06
:109060008363206800280ED0C027164E2A003300E4
:1090700015490097FFF7C8F9009733002A001349F4
:109080002068FFF7C1F90C2010F03CF80023838022
:1090900083710F4B03600F4B836000F0EFFA0123E5
:1090A0000D4A11780B431370F7BDC04670240020A1
:1090B000A4240020942400209C240020FC3F0020B5
:1090C000675D02001D8F0100FF030000FE0300002A
:1090D00020940200E58E0100B6270020F7B50600B7
:1090E0000D0017000193002802D100242000FEBDCE
:1090F0000029FAD0FFF778FF041EF6D0074B019A3B
:109100004363066045608760054B002A00D0054B2D
:10911000A363054920000CF0A3FDE7E7FC3F002016
:10912000315D02004F5D020094240020024B18685C
:10913000434258417047C04694240020002310B594
:1091400004499C006258002A01D00133F9E76050BD
:10915000100010BD7C240020002310B5044A9900A3
:109160008C58844201D00133F9E70020885010BDAB
:109170007C24002010B50024084BA200D058002801
:1091800002D003685B6898470134062CF4D1044B85
:109190001B68002B00D120BF10BDC0467C240020DE
:1091A00094240020F8B5FFF73DFF00281CD02A4D7D
:1091B0002C68E36CDA0718D502273B43E364274B9E
:1091C0001E680423F26C30001343F364636BF36393
:1091D0000CF08CFD3000716C04F0D9F82868C36C79
:1091E0003B4201D004F00DF9F8BD1D4F1D4E3A6809
:1091F0003168002A1ED129602A68914208D11B07D4
:1092000006D52C60FFF7B6FF3B68002BFAD02B6029
:1092100029688C42E8D03368994214D1124B4B63D1
:10922000124B8B6320000CF061FD2968626C4B6C63
:1092300020000DE0206DB84203D1606D002800D001
:1092400002002A60D8E79C42ECD1002210004B6C4F
:1092500004F05CF8C8E7C046A4240020782400206D
:10926000942400209C240020FC3F0020675D020025
:1092700070B50500FFF7D6FE002803D128000FF0D7
:1092800049FE70BD0C4B1C68E36CDB0706D5FFF78D
:10929000ABFE0A4B1860002800D0040000F0D6F99D
:1092A0002D18A56420000CF0EDFC054920000CF001
:1092B000D7FCFFF777FFE4E7A42400207824002000
:1092C00074240020F0B51E4B1E4F1C683B6885B00F
:1092D00006000391002B30D0FFF7A4FE00282CD00D
:1092E000E36CDB070ED5FFF77FFE174B051E1860FA
:1092F00008D00CF0C7FC154928000CF0B1FC2C007C
:10930000FFF750FF039B20001B043343A3640CF0C2
:10931000B9FC20000E490CF0A3FC0E4B0024F318FE
:10932000012B07D9C0230093039A0B4B31003868F7
:10933000FFF76AF8200005B0F0BD084CFAE7C04618
:10934000A4240020702400207824002094240020ED
:10935000A024002002FCFFFF1D8F010016FCFFFF70
:1093600010B5FFF75FFE002809D0054C20680CF00F
:1093700089FC044920680CF073FCFFF713FF10BD53
:10938000A424002098240020F7B507000D00002831
:109390002ED0FFF747FE00282CD00724164E306849
:1093A000C36C1C4007D0154A290038000CF08FFC14
:1093B00000242000FEBD04F00CF802213268D36CBA
:1093C0001940019103D003218B43D364F1E70124B9
:1093D0002343D3642800B8473268D36C1900A143F3
:1093E000D164019C5B07E4D528000CF0A8FCE0E701
:1093F000034CDEE7034CDCE7A42400203F5D0200C1
:1094000017FCFFFF16FCFFFF020010B5014B12CB4B
:1094100012C210BDA8240020034B1A68034B1A6027
:109420007E225A607047C04604200020A8240020F5
:1094300070B5114E3278022A1AD081421AD90C1A0C
:10944000072C17D90D00032305432B4012D172B608
:109450000A4DD2005051AA1851608022A408120669
:109460001443046032780132327062B6180070BD65
:109470000348FCE70348FAE7B8270020B02400209F
:1094800013FCFFFF17FCFFFF70B5134C0600237899
:10949000124D002B0CD1124912482B70FFF7C8FF58
:1094A000114B984202D11E20FFF734FC0123237098
:1094B00000242B78A34209DD0C49E300C9183000D1
:1094C0000CF057FC002805D10134F2E71420FFF717
:1094D00021FC002070BDC046B7270020B82700201F
:1094E000003800206028002017FCFFFFB024002077
:1094F00070B5002819D0104B10491C7800239C42ED
:1095000016DDDA005558854210D28A185268824218
:109510000CD9041F2368002B02DC1E20FFF7FAFB86
:10952000802322681B061343236070BD0133E6E7E6
:109530001E20FFF7EFFBF8E7B8270020B02400203B
:1095400070B5051E14DD0B4E0B4C3368002B02D09A
:1095500020680FF06AFBFA2120680024074B89007D
:109560008361C462694335600FF067FB200070BD02
:109570000348FCE7C0240020F024002029960100C5
:1095800017FCFFFFF8B5114F06003D68002D0AD10A
:1095900030200FF0B7FD040006F050FE0C4BA56123
:1095A0002360E5623C600B4D2B68002B09D1102035
:1095B0000FF0A8FD04000FF08CFB20002C600FF0D2
:1095C00062FB3000FFF7BCFFF8BDC046F02400206E
:1095D000209C0200EC240020014B18687047C04614
:1095E000C024002070B50D4C2368002B03D00C4B19
:1095F0001B68002B02D10620FFF7C4FF20680FF084
:1096000059FB02000749C3170D684E685219734190
:1096100020680A604B600FF053FB70BDEC24002003
:10962000F0240020A820002010B5FFF7DBFF002465
:10963000054BA200D058002802D003681B68984749
:1096400001340A2CF4D110BDC424002010B5FFF75A
:10965000C9FFFA22034B920018685968002307F0EB
:10966000B1FD10BDA820002010B5FFF7BBFF024BD5
:109670001868596810BDC046A82000200B4B10B5D3
:109680001B680400002B03D0094B1B68002B02D180
:109690000620FFF777FF0023064A99008858002824
:1096A00001D00133F9E78C5010BDC046EC240020F6
:1096B000F0240020C4240020002310B5044A99009F
:1096C0008C58844201D00133F9E70020885010BD46
:1096D000C424002010B50400002902D00B78002B10
:1096E00003D1034B2360200010BD0CF022FCFAE7ED
:1096F00030940200F8B504000E00150000290AD0CD
:109700000B78002B07D0002A05D0080097B20FF085
:109710008FFD874203D90B4B23602000F8BD681DE5
:10972000FFF7B2FE20600CF0C0FD23682A005F80C6
:1097300023683100181D0FF01FFD23685D190023F9
:109740002B71EAE730940200014B03607047C0467A
:109750003094020010B50548054C20600CF0A8FDBF
:10976000044A054920000FF0C6FC10BD30940200E9
:10977000F424002000200020255F0200084B73B570
:109780001C680500002C0AD0010026680831082258
:1097900068460FF0F1FC0CCD31682000884773BD9E
:1097A000F8240020014B03607047C0463894020043
:1097B00010B50400002903D1044B0360200010BD44
:1097C000016008000CF074FDF8E7C0463894020010
:1097D00030B500684488A1420CDA8588AA4209DACB
:1097E000002907DB002A05DB544340180019837168
:1097F000002030BD0048FCE717FCFFFFF0B5070074
:1098000085B00E001D00002921DD002A1FDD002B80
:109810001DD00468638803938B4200DD0391A38805
:109820000293934200DD0292002306340193019BD0
:10983000029A93420EDA29002000039A0FF09CFC52
:109840003B68AD195B88E418019B0133EEE70248E1
:1098500005B0F0BD0020FBE717FCFFFFF8B50400E2
:109860000D0016001F00002901DB002A02DA0E4B52
:109870002360F8BD100048430630FFF705FE206066
:109880000CF013FD23685D8023689E80002F06D0B6
:109890003B00320029002000FFF7B0FFE9E720007D
:1098A0000CF03AFCE5E7C04638940200F7B5060034
:1098B0000D1E03D1244B03603000FEBD00200F00BD
:1098C0000400010001903B78002B1AD03022524254
:1098D00094469C446246092A11D90A2B0AD1019B5D
:1098E000241801330193A14200DA21000020040072
:1098F0000137E8E70028FBD001340020F8E7012019
:10990000F6E70127019A09B212B230007F42FFF751
:10991000A5FF39000A2033689A1D2C78002CCBD083
:109920002300303B092B08D8FB43DB173B40434364
:109930001B19303B1F000135EFE7002FFBDB1770D1
:1099400001320F00F7E7C04638940200F0B504007A
:1099500089B006A80E0002921D00FFF755FD23688E
:1099600002995A88914235DA9B889D4232DA1F2E3D
:1099700030D9079B01939E422CDC052300227343C0
:109980000393069B0493039B04999B18A03BCB5C19
:1099900000210593AE18029BCF18236858880190C8
:1099A00087420EDA9888B0420BDDDB1910270F4191
:1099B000019870431B1805980740781E87417F4225
:1099C0009F7101310529E6D10132052ADBD1002042
:1099D00009B0F0BD0048FBE717FCFFFFF7B50468CE
:1099E000070063880E1E01931EDD994218DA0023DA
:1099F000063400933B68009A9B889A4212DA019BD6
:109A0000A1199D1B2A0020000FF0B6FB6019310040
:109A10000CF04DFB3B685B88E418009B0133E8E7E2
:109A20000CF07AFB002000E00048FEBD17FCFFFFB1
:109A300010B50548054C20600CF03AFC044A054975
:109A400020000FF058FB10BD38940200FC240020C9
:109A500000200020A160020010B5054C012120006B
:109A60000CF01AFC034A044920000FF044FB10BD1F
:109A70000025002000200020556202000388074ACC
:109A800010B50120934208D0834202D00020DB07AA
:109A900003D41E20FFF73EF9002010BDFFFF000099
:109AA0000048704716FCFFFF10B53220FFF732F96F
:109AB000004810BD16FCFFFF10B5124C00230834FF
:109AC0008280046041620224142201008371847246
:109AD00003638386028136310A78C360A243F1347E
:109AE0002240036143618361C36103620A70020023
:109AF00040321370021DD387013343878387C387A6
:109B000010BDC04658940200F0B5544F97B03B6862
:109B100006000593002B00D08BE006AC0B331C2213
:109B20002121200001F0F0FA0EAD0B231D2222218D
:109B30000AA801F0E9FA0B231B222321280001F0D7
:109B4000E3FA08200FF0DEFA0122059B11000490D1
:109B50000DF04CFF3A2130000DF0E4FC00281DD040
:109B6000A38812ADAB80A3795C20AB713C4B129300
:109B7000A3681493237B2B73637B6B73A37BAB73FF
:109B80000FF0C0FA04230193363300932A00049B9C
:109B90003100040002F098F93C604AE032213000C4
:109BA0000DF0EEFC00281CD0A38812ADAB80A37989
:109BB0005C20AB712A4B1293A3681493237B2B7305
:109BC000637B6B73A37BAB730FF09CFA042301934D
:109BD0002E3300932A00049B3100040002F012FB94
:109BE000DAE73C2130000DF086FC00282CD0AB8851
:109BF00012ACA380AB79A420A371194B1293AB686C
:109C000014932B7B23736B7B6373AB7BA3730FF07A
:109C100079FA052305000293013B01933833009341
:109C20002200049B310002F06DF80E4B3D6044357C
:109C30001D600C4B094C1868002802D021680CF0FC
:109C4000BBFC206817B0F0BD44200FF05BFA042283
:109C500004990400FFF730FF9EE7C046042500206A
:109C60004894020008250020F0B56149C56885B018
:109C70008D4254DA0300022236331B78134059D147
:109C800004698C4264DA020036321278520768D4D2
:109C9000426901920200019E40328E426FDA010059
:109CA00036310978090774D4002B7DD113780293DB
:109CB000002B16D006000127011DCB8F363601334D
:109CC0009BB2CB8703963678BC46374000D188E0FC
:109CD0001D2B06D963469E43039B1E700023CB8732
:109CE00013700CF02FFB434A0723904276D9424968
:109CF000043B8D4272DBC8220133920095426DDC39
:109D0000023B8C426ADB013B944267DC01980433DE
:109D1000884263DB0133904260DC00235EE0C822AE
:109D2000002352009542ABDD030036331A7800233E
:109D30009207A5D4012306001F0036363278540856
:109D4000A7433C0002279C40BA432243327097E766
:109D5000C822520094429BDD02003632127852072C
:109D600096D406000122363633789F08BA4397000E
:109D7000042293431A003A433270012388E7C82132
:109D8000019E49008E428FDD0100363109780907B6
:109D90008AD40100012636310B78DF08BE4308273C
:109DA000F600BB4333430B701378032B00D97DE7D8
:109DB0000133DBB21370012B03D10021031DD987BE
:109DC00074E7042B00D071E7020036321178033BB0
:109DD0000B43137000230430C3870B33180005B006
:109DE000F0BD092B00D87CE7029BCF87013B77E7CA
:109DF00070FEFFFFFF700200E0FCFFFFF0B5040003
:109E000087B0C06809F0A8FE00900191206909F0B0
:109E1000A3FE04900591606909F09EFE0200060011
:109E2000802000060B180F00009801990AF04AF8EC
:109E300009F01EFFE062051C0AF006F80390281CDA
:109E400009F0C4FF051C039809F0C0FE009A019BAD
:109E500009F092F800900191281C09F0B7FE320039
:109E60003B0009F089F802000B000098019909F005
:109E7000F5FA02000B00049805990AF023F809F09E
:109E8000F7FE0022051C00233000390007F04CF9D2
:109E9000002806D1A5620223A2791343A37107B05B
:109EA000F0BD0021281C07F079F90B4E002811D1D4
:109EB0000A4F281C09F08AFE02000B00300039000E
:109EC00009F0CCFA32003B0008F030F909F0D0FE7E
:109ED000A062E0E7024FECE7EA2E4454FB21F9BF11
:109EE000FB21F93F10B50CF0D3FA064907F0BEFD8F
:109EF00009F06CFE044A054B08F034FC09F0F6FD4D
:109F000010BDC0460000B443EA2E4454FB21194062
:109F100010B50CF0CAFA064907F0A8FD09F056FE84
:109F2000044A054B08F01EFC09F0E0FD10BDC046D8
:109F30000000B443EA2E4454FB21194070B5C369B4
:109F4000C1681A68451D8AB00400EB7F114255D0E4
:109F5000002B58D1EB7F082B0DD90122A379134296
:109F600009D11343A371A188130006A80CF075F85A
:109F7000FFF76CFB2062EB7F012B23D80123A27932
:109F80001A421FD00025A188A571022202A80CF058
:109F900064F8A31DDE7F012E14D1FFF757FB2B00C1
:109FA000226A801A994100900191019BA188AB42DD
:109FB00003D1174B009A9A4227D90123042206A8FD
:109FC0000CF04BF80322A3791340012B14D1FFF7B7
:109FD0003DFB0023226A801A9941994202D10D4B20
:109FE000984209D90223A279A1881343A3710522BB
:109FF000012306A80CF031F80AB070BD0B2BA9D8CC
:10A000000133EB77A6E7013BFBE733000322D6E7FA
:10A01000E7030000DB05000010B50400034B083324
:10A020000360FFF749FB200010BDC0468C9402007E
:10A03000F0B5070000250E00040085B002930AABBE
:10A040001B78083703930F4B019208330360858018
:10A0500085712900182238000FF0AAF8039A310000
:10A0600038000EF0CDFE019B029AA380A31DE6717D
:10A07000DA77631D25622000DD77FFF7FFFA200005
:10A0800005B0F0BD8C9402000048704716FCFFFF3D
:10A0900010B53320FEF73EFE004810BD16FCFFFF52
:10A0A000002310B50400838083710D4821640830BB
:10A0B00020608020C000A061E0612062E360200099
:10A0C000236163616362A362E36223636363A363E7
:10A0D000E363636411000CF047FA200010BDC04632
:10A0E000A4940200F0B5534F97B03B680600059367
:10A0F000002B00D08BE00B331C22212106A80AACD8
:10A1000001F002F80EAD0B231D222221200000F0E9
:10A11000FBFF0B231B222321280000F0F5FF082062
:10A120000EF0F0FF0122059B110004900DF05EFC83
:10A130001D2130000DF00DFA00281DD0A38812ADAE
:10A14000AB80A3796020AB713B4B1293A36814934F
:10A15000237B2B73637B6B73A37BAB730EF0D2FFFC
:10A1600005230193183300932A00049B3100040057
:10A1700001F07EFF3C604AE03C2130000DF017FA10
:10A1800000281CD0A38812ADAB80A3796020AB71EE
:10A19000294B1293A3681493237B2B73637B6B73FC
:10A1A000A37BAB730EF0AEFF05230193373300930F
:10A1B0002A00049B3100040002F0C6F8DAE73C21D3
:10A1C00030000DF098F900282AD0AB8812ACA3809B
:10A1D000AB79A420A371184B1293AB6814932B7B1B
:10A1E00023736B7B6373AB7BA3730EF08BFF052331
:10A1F00005000293013B0193383300932200049B36
:10A20000310001F07FFD0D4B1D6044353D600B4B6F
:10A21000084A1B681068002B00D0436417B0F0BDDB
:10A2200048200EF06FFF052204990400FFF738FF65
:10A23000A0E7C0460825002048940200042500201D
:10A2400082B0F0B50400EDB06420739372920EF00A
:10A2500061FE052210A811000BF067FF974911A8B5
:10A26000FFF724FB002221AB6CA91A605A609A60A8
:10A270000C339942F9D11922002113A80EF098FF4E
:10A28000A0680CF030FD00260B90FF21A06800F0C4
:10A2900021FD8B4FA06800F05DFB07960996884B67
:10A2A0009F4203D0874B9F4200DBFDE0A0680CF08B
:10A2B0001CFDA56884491AA8FFF70CFA78221AA990
:10A2C000280000F075FC1AA80BF02CFE00267C4F2D
:10A2D0000322099B606801331A4009920CF0CAF806
:10A2E000050060680CF0CDF80022784B05929D4285
:10A2F00010DB013205922A00C8320BDBAA220421AE
:10A3000092000591954205DC02220592C82D01DDDF
:10A310000132059200220692984210DB0123069337
:10A320000300C8330BDBAA2304329B000692984239
:10A3300005DC02230693C82801DD0133069310A82B
:10A340000BF0EAFE002513ABEB5C012B08D1604952
:10A350006B00CA185278C95C10A8FF23FFF738FABF
:10A360000135192DEFD16B4618229A5E6B4610A865
:10A370001421595E099BFFF72BFA002F01DB0F2EEA
:10A3800007D90023A068009374301A0010A90BF0BD
:10A39000D9FE01230893089B05995A004C4B9B1842
:10A3A0009A1E12788A4226D1013B1B78069A934264
:10A3B00021D1089A6CAB9B18663BFF3B0A931B7834
:10A3C000012B18D00C23079A216853431D0000224B
:10A3D0000CA80CF0F3F821AA2B0094460CAA6344B5
:10A3E00023CA23C301220A9B01361A70079BF6B2C7
:10A3F0000133DBB20793089B013308931A2BCAD1B0
:10A4000064200EF087FD079B643F3FB2182B00D8F5
:10A4100045E71A0021A91AA80CF0DEFA6A461DAB1E
:10A4200023CB23C21B6813601A991B9A1C9B2068BC
:10A430000CF0ACF8E568002D0CD0264912A8FFF707
:10A4400049F91C231AAA12A928000DF01FF812A816
:10A450000BF068FDA0680CF048FC11A912A8A568D3
:10A460000BF02BFE00221C4B009212A90193280036
:10A47000130000F00DFB12A80BF012FEFA20800072
:10A480000EF048FDA0680CF030FC0B99A06800F0BD
:10A4900021FC11A80BF004FE10A80BF001FE6DB01A
:10A4A000F0BC08BC02B01847002F02D00F2E00D01D
:10A4B0000EE7A06800F04EFA0AE7C046B2A6020016
:10A4C0008C3C0000D18AFFFFF7A6020058FDFFFF79
:10A4D00017A702000CA70200DC050000F0B587B04A
:10A4E00001930EAB1B88060003930D9B0D00009398
:10A4F000019B02920C9F002B3CD0002F02D1009BAD
:10A50000DB0737D528200EF0FDFD040010300BF0DE
:10A510009AFD029B1820258063800EF0F3FD050054
:10A52000009B08220593019B002103600C300497D7
:10A530000EF03EFE082204A9281D0EF01DFE0E4B53
:10A5400002226B6100230399E36023626362336834
:10A550000A43A560A2805B6821003000984700286C
:10A5600006D020000BF094FC20000EF0BCFD034848
:10A5700007B0F0BD0248FBE7FD65020016FCFFFFD7
:10A5800017FCFFFF70B58CB08360109B01604260C8
:10A59000C3600400184918000CF03FFF051E14D0DA
:10A5A00001001C22103105A80EF0E6FD6A4608AB3A
:10A5B00043CB43C21B68136020680599069A079B2A
:10A5C0000BF0E4FF28000EF08EFD0C4B18680028FD
:10A5D0000ED00B4A05AB059200220692C0320292C1
:10A5E0006A4622CB22C2230003220521FFF776FF11
:10A5F00020000CB070BDC0460CA70200F82400205B
:10A6000041A20100F0B5040085B0637A9C46002B9E
:10A6100004D120000CF0FEF905B0F0BDA37A266F3E
:10A6200001931023019AF35600259B1801229A40AA
:10A630002900F36803920293029BAB4231DDB368B9
:10A64000019A6B439B1872695B00E77AD3181A78FA
:10A650005878E379012F14D15F1E3F1A10003A0099
:10A660005B004343606F8218D3189B79634500DD1C
:10A670006346627B1A4202D00123AB401943013585
:10A68000DAE7022F05D15F1EBA1A277A013F381A7E
:10A69000E6E7032FE4D1277A013FBF1A0200380012
:10A6A000DEE71123C943F356606C994023691940D2
:10A6B000039B19430EF0EEFCA27B072AACD8637B08
:10A6C0000C495B006373531CDBB290004158A373C9
:10A6D000022A03D808000EF012FC96E7064B200071
:10A6E000236300236363054BE462236414300EF09C
:10A6F000A4FA91E7D094020005A60100FF690200C8
:10A7000010B50400044B03600EF08FFA200005F032
:10A71000ABFD200010BDC046209C020010B5040017
:10A720000E4B08330360FEF7C7FF200074300BF0B8
:10A73000B7FC200060300BF0B3FC200058300BF069
:10A74000F1FB200050300BF0EDFB2000044B1430E7
:10A750006361FFF7D5FF200010BDC046F0940200F2
:10A76000349C0200F8B500250400324B8580083384
:10A7700003608571143016000F0005F05FFD2000A6
:10A780002D4BE562636125645030FEF7DDFF20004C
:10A790005830FEF7D9FF20006030FFF703F82000A3
:10A7A0000423F25E33682667590009B274300BF057
:10A7B000BCFC3368226FE371736801262372102397
:10A7C0006581A7802561D35691685918994204DDA7
:10A7D0003000984001330543F8E711230120D35698
:10A7E000D1685918994206DD02009A402669013362
:10A7F00032432261F6E714200EF084FC2269002126
:10A800002A430123060005F0A3FFFF232200637201
:10A810000133A381002348326664A37320001370C0
:10A82000A366FEF72BFF0123A27920001343A37137
:10A83000F8BDC046F0940200349C0200F0B5437AA3
:10A8400085B00400002B04D120000CF0E3F805B023
:10A85000F0BD0122837A11009C461023066F00256B
:10A86000F35603926344994002912900F3680193DF
:10A87000019BAB422CDDB36872696B4363445B00A0
:10A88000E77AD3181A785878E379012F10D15F1E30
:10A890003F1A10003A005B004343606F8218D318E0
:10A8A0009B79002B02D0039BAB4019430135DFE7B6
:10A8B000022F05D15F1EBA1A277A013F381AEAE73C
:10A8C000032FE8D1277A013FBF1A02003800E2E7E0
:10A8D0001123C943F356606C994023691940029BC8
:10A8E00019430EF0D7FB667AB31EDBB2FC2B14D8EB
:10A8F000FEF772FE0B4B0500236300230A486363D7
:10A900000A4BFF21E4622364704306F0F7FA290042
:10A910004143200014300EF090F9637A012B00D9E6
:10A9200095E791E7156A0200B6030000FF6902008F
:10A930001FB5012381881A0068460BF08EFB0123A6
:10A9400003491A0068460BF088FB05B000BDC046FD
:10A95000FE0300001FB5030048331A780400002AE4
:10A960000DD000221A70012381881A0068460BF06E
:10A9700074FB012304491A0068460BF06EFB2000AB
:10A9800074300BF0C9FB1FBDFF03000010B5483049
:10A990000378002B06D00378012B03D00121024855
:10A9A0000BF0BDF910BDC046FF03000010B501213A
:10A9B000040006200BF0B3F9064B984208D1483446
:10A9C0002378002B04D02378012B01D020BFF7E798
:10A9D00010BDC04616FCFFFF70B50600141E19DB43
:10A9E000050048352B78002B02D02B78012B13D192
:10A9F000002330001A007430FEF7A8FF002C07D0A7
:10AA000033004A331C80002407234C3634802B70DB
:10AA1000200070BD014CFBE7014CF9E717FCFFFF7C
:10AA200012FCFFFFF8B517000A68050052880B00FA
:10AA3000012A09D1002118000BF0F8FA00220100C8
:10AA40002800FFF7C9FFF8BD002F19DD06004836C2
:10AA50003278002A02D03278012A13D12A00002449
:10AA600028005C321900148058300BF0BAFA2B0021
:10AA70004A331F8003234C352C8020003370E2E7DB
:10AA80000148E0E70148DEE717FCFFFF12FCFFFF8B
:10AA900073B5079C0500002C1CDB06004836307897
:10AAA000002802D03078012816D106981BB2C0B217
:10AAB0000090280012B274300BF044FB002C07D039
:10AAC0002B004A331C80002407234C352C80337024
:10AAD000200076BD014CFBE7014CF9E717FCFFFFB6
:10AAE00012FCFFFFF7B505000E00171E26DDFFF76D
:10AAF0004DFF2B0048331C78E4B2002C20D1336882
:10AB00005B88012B09D1210030000BF08FFA220065
:10AB100001002800FFF760FFFEBD310001A80BF027
:10AB200058FA3A0001A92800FFF77CFF01A80BF0B2
:10AB3000F9F92800FFF73AFF2000EDE70148EBE7BD
:10AB40000148E9E717FCFFFF11FCFFFFF0B587B0F4
:10AB50000D9C06000F0002920393002C20DBFFF7F0
:10AB600015FF330048331D78EDB2002D1AD139009E
:10AB700005A80BF0A2FA0C9B01940093029A039B88
:10AB800005A93000FFF784FF05A80BF089FA002C17
:10AB900003D03000FFF70AFF2C00200007B0F0BD03
:10ABA000014CFAE7014CF8E717FCFFFF11FCFFFF2F
:10ABB000F8B50400171E1DDD060048363378002B5B
:10ABC00002D03378012B17D12200E3795632013BB2
:10ABD000137023000025200054331D8050300BF0EB
:10ABE00000FA23004A331F80022328004C342580BA
:10ABF0003370F8BD0148FCE70148FAE717FCFFFF96
:10AC000012FCFFFFF8B50400171E2DDD06004836C4
:10AC10003278002A02D03278012A27D15D42069B81
:10AC2000FF331FD16B1D22001BB26432138023003F
:10AC3000200066331D7060300BF047FA23000022BD
:10AC40006C331A70954200D03D0023004A331D80BA
:10AC5000079B00205A1E9341013F4C340533278047
:10AC60003370F8BD069BDEE70148FAE70148F8E7D4
:10AC700017FCFFFF12FCFFFFF0B587B005000F00C7
:10AC8000161E03931EDDFFF781FE2B0048331C7850
:10AC9000E4B2002C18D1390005A80BF00EFA0D9B78
:10ACA000320001930C9B05A900932800039BFFF73A
:10ACB000A9FF05A80BF0F4F92800FFF777FE2000A4
:10ACC00007B0F0BD0148FBE70148F9E717FCFFFFBB
:10ACD00011FCFFFFFF2902D8417200207047014894
:10ACE000FCE7C04617FCFFFF13B5040004A800787A
:10ACF000009020000DF0C9FE002801D1207516BD7E
:10AD00000048FCE70EFCFFFF13B5040004A8007820
:10AD1000009020000DF0A1FE002801D1207516BD85
:10AD20000048FCE70EFCFFFF7FB50D0011000F226D
:10AD30006A4404001E1E117016D0089B002B13DD00
:10AD4000012329000093FFF7DFFF002802D0074806
:10AD500004B070BD0090089B320029002000FFF76E
:10AD6000C3FF0028F4D0F2E70148F1E70EFCFFFF33
:10AD700017FCFFFFF7B507000D1E3FD0002302268A
:10AD800004690193002C35D0AA88A388534033422C
:10AD900004D1324204D1AB88334226D0646AF1E751
:10ADA000A968A0680CF007FE0028F4D02B88002BBF
:10ADB00002D022889A42F1D16B88002B02D062889F
:10ADC0009A42EBD1EB68E268934201D0002BE5D1C7
:10ADD0007B68002B01D020009847A288084B1343C2
:10ADE000A380019B01330193D8E7A368AA6893422B
:10ADF000D4D1DBE7019B2000002B00DC0148FEBD25
:10AE00000080FFFF17FCFFFFF0B5060085B00D1EA8
:10AE10005DD001270469002C26D00221AA880023D6
:10AE20000A4202D0A3885B083B40226829688A4214
:10AE300014D1A068A968002B0ED00CF0BCFD00282E
:10AE40000CD0EB68E268934208D1A3881AB2002ABA
:10AE500006DB204805B0F0BD8842F2D0646ADAE72C
:10AE60005B045B0CA380F4E730692A88002807D1D3
:10AE700035610123184968460BF0EFF80020E9E737
:10AE8000010003001C88944206D25C6A1900002C61
:10AE90000DD02300F6E723001C88944207D15F8879
:10AEA0006C88A74203D85C6A1900002CF3D1884251
:10AEB00009D10B889A4204D305D148886B889842FF
:10AEC00001D96962D4E74B6A6B624D62D1E70348EE
:10AED000C0E7C04616FCFFFFFD03000017FCFFFFA4
:10AEE000064B10B51A00040008322C330260836050
:10AEF0000830FEF731F9200010BDC0460895020069
:10AF000008B4024B9C46083808BC6047E1AE01001B
:10AF100008B4024B9C46083808BC60475D6E0200CE
:10AF20000C4A002311002C32083110B54360838194
:10AF300083738260036143618361C38301600400A2
:10AF40000830FEF7FBF8044B1A68002A00D11C6099
:10AF5000200010BD08950200F8240020F7B50E006F
:10AF6000012504690192002C36D0238832889A4248
:10AF700001D0002B23D1638872889A4201D0002B24
:10AF80001DD1FEF74FF80123002806D0C022A38868
:10AF90001340C03B5A425341DBB2019A934219D14C
:10AFA000A7883BB2002B15DB10223100A0180EF051
:10AFB000E3F840231F4204D020000BF058FF646ADE
:10AFC000D1E7FEF72FF80028F6D021000348FEF75E
:10AFD000DBF9F4E70025F2E72800FEBD6F6E020002
:10AFE00008B4024B9C46083808BC6047F76F020063
:10AFF000F0B587B001930EAB1B88060003930D9B41
:10B000000D000093019B02920C9F002B3CD0002F5F
:10B0100002D1009BDB0737D528200EF073F804001F
:10B0200010300BF010F8029B1820258063800EF082
:10B0300069F80500009B08220593019B002103602D
:10B040000C3004970EF0B4F8082204A9281D0EF065
:10B0500093F80E4B02226B6100230399E360236295
:10B06000636233680A43A560A2805B6821003000F8
:10B070009847002806D020000AF00AFF20000EF0B2
:10B0800032F8034807B0F0BD0248FBE73170020018
:10B0900016FCFFFF17FCFFFFF0B5040016000025AB
:10B0A0008380164A164B85710260218146810573A3
:10B0B000186889B08C46A8421DD0124A05950492A2
:10B0C000C02202926A4604AB82CB82C223002A00CD
:10B0D0006146FFF78DFFC022094B0A4918680292AA
:10B0E0006A46069106AB079582CB82C223002A00EE
:10B0F0003100FFF77DFF200009B0F0BD4C95020044
:10B10000F82400205B71020030B500240373012392
:10B11000034D84710560818082734373846030BD08
:10B120004894020070B583790400DB0702D580687B
:10B130000DF0D9FFA3799B0702D5A0680DF0D3FFCE
:10B14000A3795B0707D5A0230021144ADB00D15067
:10B15000A0680DF0C8FFA3791B0708D5A568002DCE
:10B1600005D028000CF098FC28000DF0BCFFA37956
:10B17000DB0605D5A068002802D00368DB68984785
:10B180006023A2791A4205D0A068002802D0036883
:10B190005B6898470023A360A37170BD00700040F6
:10B1A000F7B50126037B040033422AD06123857959
:10B1B0001D4017D1FFF7B6FF18200DF0A3FF0E2397
:10B1C0000700E35618220093637B290001930DF0DA
:10B1D000EFFF019A009938000DF012FEA379A760E5
:10B1E0003343A3716023A279A0681A4202D00DF004
:10B1F0006DFCFEBD436940681B681840431E9841C2
:10B20000F7E70148F5E7C04616FCFFFF10B501243B
:10B21000837941731C4004D080680DF082FE0020C9
:10B2200010BD6022134203D080680DF056FCF6E793
:10B230000048F5E716FCFFFF70B5040000250C4B35
:10B240000E000833858085710360210018300CF0F2
:10B2500035F82000210020300CF053F8054BA68073
:10B26000E5802572E5602561656120001C6070BD88
:10B270005C9502000C2500208379DB0702D5C160B4
:10B28000002070470048FCE716FCFFFF8379DB07CE
:10B2900001D5C06870470148FCE7C04616FCFFFFB7
:10B2A00070B545690400002D22D0037A032B21D804
:10B2B000FFF7ECFFA8622C200DF024FF2C220021C8
:10B2C00005000DF075FF002263695A6223699342FD
:10B2D00008D1636923610020237A656101332372F9
:10B2E00070BD13005A6A002AFBD162695A62F2E704
:10B2F0000148F5E70148F3E717FCFFFF13FCFFFFE8
:10B30000144B70B55A68144C002A03D000225A60BE
:10B310000132A2601A69002A17D000211961802326
:10B32000DB000E4DE3582868012B0FD1A923DB0069
:10B33000E1584942FFF7A0FF2868FFF7B1FF2B68EB
:10B340005A69074BE2500123A36070BDFFF794FFD9
:10B35000F9E7C046FC100040001000400C2500201A
:10B360000405000003000069002809D00221054AF5
:10B37000D167426A1A611A7A013A1A72024B19604D
:10B380007047C04604E100E000E100E00223024A09
:10B3900011780B4313707047B92700200221024A2D
:10B3A00013788B4313707047B927002010B500291C
:10B3B00003DB024B19600DF013FC10BD10250020BB
:10B3C00070B504001E0004AB1D7804F001FF2000DE
:10B3D0000E4B40302360FEF7B7F9230001364C33A3
:10B3E000013522001E701D730023E1214E32A3643B
:10B3F0006365138053809381D381013B2000636494
:10B400004902FFF7D3FF200070BDC046F893020049
:10B41000F0B5050007005C355A372B883A8885B0AF
:10B4200004009A421ED0104B1B781B071AD52B889C
:10B43000426DD15C0DF078FB2300288858331978D1
:10B44000013005F041FE3B888EB2B34209D1074975
:10B450000123022268460AF000FE012120000BF0C1
:10B4600091FF2E8005B0F0BDB9270020FF0300003A
:10B47000F8B5114D04002B781B0705D501210BF001
:10B4800081FF606DFEF734F8082623002F785833CB
:10B49000B7432F701878FDF7F7FF6065002808D0D4
:10B4A000230000205A335C343E4318802E702080E5
:10B4B000F8BD0248FCE7C046B927002013FCFFFF97
:10B4C00073B50D0006A9040009780430002A01D1E3
:10B4D000DE070ED5002D0CD018264E430C34A419CF
:10B4E00062600122A360044B2560636105F062FA8B
:10B4F00073BD0022FAE7C0462D730200F0B58BB091
:10B500000593030007000400002558330693043315
:10B51000039104925A370793049B9D4211DA069BCC
:10B520003E881978701C05F0CFFD079B89B21B88F7
:10B530008B4206D0039B626D5B5D0135935539806C
:10B54000EAE7059B012B03D002210748FDF7BAFE6D
:10B55000012320000093054A00232100FFF7B0FFDC
:10B5600028000BB0F0BDC046FF03000011B401007D
:10B57000F7B5184C1F0023780500019116009B07B2
:10B5800024D4002A24DD002922D0FFF7FFFE2378EF
:10B590001B0714D50024019B321B191928003B00FE
:10B5A000FFF7ACFF3900241828000BF0DBFE002F5A
:10B5B00001D0A642EFDC2800FFF7F0FE04E02800EF
:10B5C000FFF756FF041EE5D02000FEBD024CFBE74E
:10B5D000024CF9E7B92700200DFCFFFF17FCFFFF25
:10B5E000F7B580277F053D697C690822113C6C43D3
:10B5F0000600210068460DF0BFFD104B009A9A42EC
:10B6000019D00093002301937969300013396943FD
:10B610000BF0BEFE019A009930000BF0D1FE210024
:10B6200030000BF0B5FE7969AB081339694322008D
:10B6300030000BF0B7FE0198FEBDC046FECA000008
:10B64000F0B50D00A9B00D9200213022060010A81F
:10B650000B930DF0ADFD28000DF0EAFD431C0C939B
:10B66000102B00D9B5E00B9B202B00D9B1E02900AD
:10B6700030000BF0D2FE071E50D129000C9A10A802
:10B680000DF07AFD0D990B9A14A80DF075FD80232D
:10B690005B051A695F690C92113F7A4330005D695E
:10B6A0000B92FFF79DFF3022002104001CA80DF033
:10B6B0007FFD290000270C9B1339594330000BF004
:10B6C00067FE0D9730257D430B9B0833ED18A7428D
:10B6D00042DA290030221CA80DF04EFD10A91CA84A
:10B6E0000DF09CFD002827D13C49300022000E912E
:10B6F0000F940BF065FE6A46099513AB23CB23C26A
:10B7000023CB23C223CB23C23000129B1099119A62
:10B710000BF064FE01230D930137D3E710300B9A31
:10B720000D990DF01AFD040038000DF0DCFC002C22
:10B73000A3D1200029B0F0BD6A4609951FAB23CBE9
:10B7400023C223CB23C223CB23C230001C991D9AD2
:10B750001E9B0BF043FEDFE7E5433023ED1725404A
:10B760005D430B9B08355D190D9B002B1DD10C9B78
:10B770003021981E05F038FBA0422CD01749013427
:10B78000300022000E910F940BF01AFE6A460995C4
:10B7900013AB23CB23C223CB23C223CB23C2300042
:10B7A0001099119A129B0BF019FE0B9930000BF0B7
:10B7B000EFFD80235B0559690C230C9A1339634311
:10B7C0004A430233110030000B9A0BF0EBFD0024CA
:10B7D000AFE7034CADE7034CABE7C046FECA000041
:10B7E00017FCFFFF13FCFFFF8023F0B55B051A6910
:10B7F00095B003925A6905910399113A51435D69D5
:10B80000039B133D040002915D43FFF7E9FE061E12
:10B810003BD0002730220021083508A801950DF003
:10B82000C7FC019920000BF0B3FD049730237B4344
:10B83000029D0835ED18B7421FDA2900302208A80A
:10B840000DF09AFC059908A80DF0E8FC00280AD133
:10B850001949721E2000069107920BF0B1FD0123D9
:10B8600004930137E2E70C23019A290020000BF032
:10B8700099FD019B30330193F3E7049B002B06D124
:10B880000D49320020000BF09BFD0C4812E002999C
:10B8900020000BF07DFD80235B0559690C23039A82
:10B8A00013394A437343110020000233029A0BF00C
:10B8B00079FD002015B0F0BDFECA00000CFCFFFFB2
:10B8C00070B50400A280FA22002308000C499200FF
:10B8D00008312160A3716061E260A360638209495D
:10B8E0000BF09BFD051E09D0010020001031022243
:10B8F00012300DF041FC28000DF0F5FB200070BD6A
:10B900007495020049A7020030B50225837987B0FB
:10B9100004002B4204D1FDF711FCA3791D43A5714E
:10B9200020000BF0C4FD00281CD06B46DD1C280055
:10B930000BF0B4FD2B78002B17D001A80BF0ACFD59
:10B940000321019AD3170B409B189B102382FDF70C
:10B950007DFEE368A18818180123A0601A0002A8E0
:10B960000AF07BFB002007B030BD0122064B1A60B5
:10B97000064A51680029FCD000215160044A12682F
:10B98000019201225A60DBE700C00040FCC0004089
:10B9900008C50040022802D10122014B1A707047ED
:10B9A000BA27002070B5064C05002378002B04D17F
:10B9B000044801F0E3FE01232370280070BDC04657
:10B9C000BB27002095B9010070B50C000AF027F9DB
:10B9D000002810D00023144DA40A2B7020000BF077
:10B9E0007AFD002803D00A200DF094FAF6E72B78B0
:10B9F000002BFCD070BD02210C4B0D4A99508021C8
:10BA0000C90008005D58002DFCD0A121C9005C5080
:10BA100019580029FCD0002199508021C9005A589A
:10BA2000002AFCD0E6E7C046BA27002000E001402B
:10BA300004050000F8B50C0015001E000AF0EFF830
:10BA4000002811D00023174F3B703200290020003E
:10BA50000BF03FFD002803D00A200DF05BFAF4E75D
:10BA60003B78002BFCD0F8BD01210F480F4B8446DA
:10BA700019508021C9005A58002AFCD08027002282
:10BA8000FF00964207DD910068586050D95900299F
:10BA9000FCD00132F5E7002261465A50DA59002AFB
:10BAA000FCD0E0E7BA2700200405000000E00140D8
:10BAB00008B4024B9C46443808BC6047DB74020063
:10BAC000FA21F8B50389C9000400594332480BF044
:10BAD00088FFFA21890005F087F9304F2081A17A8B
:10BAE00038000BF07EFF23002600250022894C330E
:10BAF000A072A0361A808C35317800232A2228685B
:10BB00000BF000F9002801D02548F8BD31781F233B
:10BB10005B2228680BF0F6F80028F5D13178202355
:10BB20005C2228680BF0EEF80028EDD13178012373
:10BB30002C2228680BF0E6F80028E5D131780123A3
:10BB40002D2228680BF0DEF80028DDD131780123A2
:10BB50002E2228680BF0D6F80028D5D1A17A38001B
:10BB60000BF03AFF3178C3B20E2228680BF0CAF806
:10BB70000028C9D1FA2123898900594306480BF0CE
:10BB80002BFF01230343DBB231782A2228680BF014
:10BB9000B9F80028B9D0B7E7949502008C95020057
:10BBA0000EFCFFFF08B4024B9C46443808BC6047BB
:10BBB000C1BA0100074B10B51A00040008323C332B
:10BBC0000260436444300AF09DFC20000AF0ACFBA4
:10BBD000200010BDF495020008B4024B9C46443886
:10BBE00008BC6047B5BB010008B4024B9C46443812
:10BBF00008BC6047E5740200F0B5042583798BB07A
:10BC000004002B4204D1FDF799FAA3791D43A571D5
:10BC100020009030FFF7C4FA0026B0420FD1230075
:10BC2000A033197820000C2307AD00938C302B0033
:10BC300001220068FFF778F8061E03D02C4E300072
:10BC40000BB0F0BD0A2304AA9B182A785A706A78B0
:10BC50001A700022985EAA785A70EA781A70002248
:10BC6000995E03912A795A706A791A7000229F5E50
:10BC7000AA795A70EA791A7000215A5E04922A7AD7
:10BC80005A706A7A1A7000215A5E0592AA7A5A701E
:10BC9000EA7A1F251A7000229B5EA27A03999C46BD
:10BCA000514349425043CB172B407A435B185B11F9
:10BCB000A361C3172B401818D3171D406423AD1878
:10BCC000059A5B425343A36764236146049A40117B
:10BCD0005A434B43E2676D11221DE061256220004B
:10BCE000D3670AF09AFB200044300AF012FCA6E762
:10BCF0000EFCFFFF08B4024B9C46443808BC60476A
:10BD0000F9BB0100F7B51E00040008AB1B88150045
:10BD1000019309AB00911A8831000AAB1F88FDF727
:10BD2000CBFE20003A0031004430FEF7B9F9134B46
:10BD300020001A003C336364230008322260009A1A
:10BD40008C331A60AB8890308380AB79019A837111
:10BD50000B4B03210360AB6883602B7B03736B7B0E
:10BD60004373AB7B83732300A0331A80FFF74EFA33
:10BD70002000FFF7A5FE2000FEBDC046F49502009E
:10BD800048940200F8B5FA260189B6000400714310
:10BD900026480BF026FE310005F026F8244F2081BE
:10BDA000A17A38000BF01DFE2500A07258352978C5
:10BDB00000232A22606C0AF0A5FF002801D01D484C
:10BDC000F8BD297810232B22606C0AF09BFF002815
:10BDD000F5D1297801232D22606C0AF093FF002809
:10BDE000EDD1297801232E22606C0AF08BFF002808
:10BDF000E5D1A17A38000BF0EFFD2978C3B20E220D
:10BE0000606C0AF07FFF0028D9D12189074871436F
:10BE10000BF0E2FD01230343DBB229782A22606C98
:10BE20000AF070FF0028CBD0C9E7C0465C9602003C
:10BE3000549602000EFCFFFF10B50400034B0833BC
:10BE400003600AF071FA200010BDC046BC960200E3
:10BE50007FB50425837904002B4204D1FDF76EF9E8
:10BE6000A3791D43A57120004830FFF799F90025FB
:10BE7000A8420DD1230058331978062302AE00934F
:10BE800001223300606CFEF74FFF051E03D00D4DFD
:10BE9000280004B070BD022300210420F356A27ACA
:10BEA000DB00715630565343C000C9005143424332
:10BEB0005B42A3612368E16122629B6A200098478C
:10BEC000E6E7C0460EFCFFFFF8B50400150006AA21
:10BED000168807AA0F0012881900FDF7EDFD0F4B19
:10BEE0006764083323602300AA8848339A80AA79BC
:10BEF00020009A710A4AA264AA6822652A7B1A73F2
:10BF00006A7B5A73AA7B9A730023A3712300583368
:10BF10001E80FFF737FF2000F8BDC046BC96020028
:10BF20004894020010B50400034B083303600AF084
:10BF3000E9FA200010BDC04650970200F0B5070096
:10BF40005C3787B00400397800231022806C0AF037
:10BF5000D9FE0326002802D01F4807B0F0BD0F25E8
:10BF600002ABED180123397808220093A06C2B0056
:10BF7000FEF7DAFE184B9842EED02B78334203D00E
:10BF80006420FDF775F9EAE7FA262189134DB6001A
:10BF9000714328000BF025FD310004F025FF2081BE
:10BFA0003978A0231122A06C0AF0ACFE0028D3D16E
:10BFB000A36C21890393714328003F780BF00CFD9B
:10BFC00001231843C3B21022390003980AF09AFEE5
:10BFD0000028C2D0C0E7C0460EFCFFFFF09602006A
:10BFE00070B50825837986B004002B4204D1FDF793
:10BFF000A5F8A3791D43A57120004C30FFF7D0F8B8
:10C00000061E0DD023005C331978062304AD00937F
:10C0100001222B00A06CFEF787FE061E03D0134EF4
:10C02000300006B070BD0E232A786B445A706A78CF
:10C0300020001A700022995E64224A43A263AA7803
:10C040005A70EA781A700022995E64225242514373
:10C050006163297959706979197000215B5E5A43CF
:10C060002368E2631B6A9847DAE7C0460EFCFFFFCD
:10C07000F8B50400150006AA168807AA0F00128852
:10C080001900FEF70DF80D4BA76408332360230059
:10C09000AA884C339A80AA7920009A71084AE264EF
:10C0A000AA6862652A7B1A736A7B5A73AA7B1E820E
:10C0B0009A73FFF743FF2000F8BDC0465097020077
:10C0C00048940200F7B5FA250189204FAD0004001D
:10C0D000694338000BF085FC290004F085FEA17A45
:10C0E00020811B480BF07DFC2600636CA07200933E
:10C0F0002189583633786943380001930BF06CFC82
:10C1000007230343DBB22022019900980AF0FAFDCD
:10C11000002801D00F48FEBD317810232222606C28
:10C120000AF0F0FD0028F5D1A17A0948656C37784E
:10C130000BF052FC80235B420343DBB22322390025
:10C1400028000AF0DFFD0028E5D0E3E7849702002D
:10C150007C9702000EFCFFFF10B50400034B083370
:10C1600003600AF0E1F8200010BDC046F497020019
:10C17000F0B50425837985B004002B4204D1FCF787
:10C18000DDFFA3791D43A57120004830FFF708F8B3
:10C19000061E0DD0230058331978062302AD0093F4
:10C1A000A8222B00606CFEF7BFFD061E03D0144EC4
:10C1B000300005B0F0BD1F200023EA5ED317034016
:10C1C0009B180222A95E5B11CA1702405218042173
:10C1D0006F5E5211F9170140C91949112B806A800D
:10C1E000A980A07A4343424341435B42E361236811
:10C1F0005242A26121629B6A20009847D8E7C0465C
:10C200000EFCFFFFF8B50400150006AA168807AA61
:10C210000F0012881900FDF74FFC0F4B67640833BD
:10C2200023602300AA8848339A80AA7920009A7153
:10C230000A4AA264AA6822652A7B1A736A7B5A7327
:10C24000AA7B9A730023A371230058331E80FFF743
:10C2500039FF2000F8BDC046F49702004894020060
:10C26000F7B5FA2504000189134EAD00694330008B
:10C270000BF0B7FB290004F0B7FD2700A36C208169
:10C2800000935C373B7881B26943300001930BF037
:10C29000A3FB6022C3B2019900980AF033FD002885
:10C2A00001D00648FEBD397801236222A06C0AF055
:10C2B00029FD0028F6D0F4E7289802000EFCFFFFC5
:10C2C00010B50400034B083303600AF01BF920008B
:10C2D00010BDC046509802007FB508258379040040
:10C2E0002B4204D1FCF72AFFA3791D43A57120003E
:10C2F0004C30FEF755FF051E0DD023005C33197836
:10C30000062302AE0093E8223300A06CFEF70CFD7A
:10C31000051E03D00B4D280004B070BD0223F25E51
:10C3200096235B425A4362630021725E20005343AE
:10C33000A3630423F25E96235343E36323681B6ADB
:10C340009847E8E70EFCFFFFF8B50400150006AAC1
:10C35000168807AA0F0012881900FDF7A1FE0D4BE1
:10C36000A764083323602300AA884C339A80AA79F3
:10C3700020009A71084AE264AA6862652A7B1A73EF
:10C380006A7B5A73AA7B1E829A73FFF769FF2000AB
:10C39000F8BDC046509802004894020010B5040051
:10C3A000054B083303601C3009F0BCFD2000183039
:10C3B00009F0B8FD200010BD7C980200FF23F0B505
:10C3C0002C4D8DB02B70002304006946008800932B
:10C3D00003F02CF8002802D16B469B782B70264E78
:10C3E0003368DB68002B07D1002320881A0019006E
:10C3F0000BF0E8F80DB0F0BD2B78032BF4D81F49F3
:10C4000001A8FDF767F9336801A9DE6804A809F0FF
:10C41000E0FD04A930000BF033F80027060004A863
:10C4200009F080FDBE421ED031002022103104A848
:10C430000CF0A2FE30000CF056FE297804ABC900C7
:10C440005918082202A80CF097FE20880123082220
:10C4500002A90BF0B7F80137002804D12088084A58
:10C460000C210BF0ADF801A809F05CFD002FBBD04A
:10C47000C0E7C0467C20002020250020DCA7020069
:10C48000FFFF0000F0B5837991B004005B071BD576
:10C49000FDF7DCF800232269801A9941994203D103
:10C4A000F423FF3398420FD9A068002808D0364BF8
:10C4B0001D880BF00EFB036815221B6A29009847A4
:10C4C0000422A3799343A371A3799B0759D52F4DD8
:10C4D0002B68DB68002B50D02D4B1B78032B4CD8DE
:10C4E000294B2C491B8804A80193FDF7F3F82B680E
:10C4F00004A9DE6808A809F06CFD08A930000AF05C
:10C50000BFFF070008A809F00DFD02AB9E1D082320
:10C510003200338006A9073B01980BF055F8002F35
:10C5200008D039002022103108A80CF025FE380070
:10C530000CF0D9FD164B32881B7806A9DE0008AB3B
:10C540009E1930000CF009FE002813D0082206A91D
:10C5500030000CF011FE2B6804A9DD6805A809F075
:10C5600038FD202308AA05A928000AF08FFF05A896
:10C5700009F0D8FC04A809F0D5FC0222A379934362
:10C58000A37111B0F0BDC0469C27002020250020DB
:10C590007C200020DCA70200F7B5089E05001529C5
:10C5A00022D8012007008F40244C27421CD0E97F6D
:10C5B000CC181F2C41DC69183418A14210D8002176
:10C5C000C8B2834204D9545C701884700131F7E713
:10C5D00032789A183270EA7F9B18EB7700202CE0B3
:10C5E0000878C8540139E8E73478013CE4B2A34242
:10C5F00008D10023D9B28C42F0D9D05CF1188870F0
:10C600000133F7E7EF7F0120FF183F1B1F2F14DCDA
:10C610000227A01C7F423618381B0190E87F2F1894
:10C62000BE4204D23078019FF0550136F6E7041B74
:10C63000023CEC7728000BF008F8FEBDFC0020005F
:10C6400070B504000D1E036809D15B699847FA2094
:10C6500080006843074904F0C7FBE08070BD9B6819
:10C660009847A842F3D9236820009B6898470500A3
:10C67000EDE7C04671020000F0B5040085B00193FB
:10C680000AAB1E880BAB1B78451C02930EAB1B78C4
:10C69000170003930B78102203704B8A01314382F9
:10C6A00028000CF069FD268300260122019B6761AA
:10C6B0006383039BE6832377029B2000EB77A31C15
:10C6C000DA770C9B0C25636223000D9A28331A70CD
:10C6D0005E709E702A0031002C300CF069FD200045
:10C6E000064BE663A3632A00310040300CF060FD86
:10C6F0002000034B2665E36405B0F0BDDF75020042
:10C70000D1750200F0B507001600A1B002C7040001
:10C710006B4918A81D000AF0DFFF331E03D030005C
:10C720000CF086FD83B20122049200220392029251
:10C73000023201920093320018A93800FFF79CFFE3
:10C7400023006049583318A807930AF0C5FF2B1E31
:10C7500003D028000CF06CFD83B201220492002269
:10C76000039202920232019200932A0018A90798BC
:10C77000FFF782FF23005449AC3318A808930AF04E
:10C78000ABFF269B002B03D018000CF051FD83B2A9
:10C79000012204920022039202920232019200933B
:10C7A000269A18A90898FFF767FF631CFF334749CB
:10C7B00018A809930AF090FF279B002B03D01800BC
:10C7C0000CF036FD83B2012204920022601C039219
:10C7D0000292023201920093279A18A9FF30FFF7C4
:10C7E0004BFF23005533FF33394918A809930AF04A
:10C7F00073FF289B002B03D018000CF019FD83B2A7
:10C8000001220492002203920292023201920093CA
:10C81000289A18A90998FFF72FFF2300A933FF339F
:10C820002C4918A80A930AF057FF299B002B03D024
:10C8300018000CF0FDFC83B201220492002218AD16
:10C8400003920292023201920093299A29000A98D7
:10C85000FFF712FF204B1B780B93002B2CD1079B6B
:10C8600012971393089B0DAF1493631CFF3315931A
:10C87000099B1A4916930A9B380017930AF02CFF5C
:10C880001D2149203B7810222B707B8A12AE6B82CF
:10C8900006ABC918C0180CF06FFC06232B750B9B58
:10C8A0002068AB83AE610BF018F9036829001B68A0
:10C8B00098470122084B1A70200021B0F0BDC046F5
:10C8C000292A0000242A0000252A0000272A000027
:10C8D000262A0000282A0000BC2700200A18000091
:10C8E00070B5002504000B4B85800833857103600B
:10C8F000C1601830FCF728FF20001C30FCF724FF33
:10C900000123621CD377044AA5606561200014608E
:10C91000A37170BD7C98020020250020FA2130B55B
:10C9200085B00500012302228900684609F095FBC5
:10C93000074C2068002809D00AF007FF2988054B1A
:10C9400022681980022391790B43937105B030BDA1
:10C95000202500209C27002010B50C0007290DD8A9
:10C9600080680BF0B6F8064B195703685B6C984764
:10C97000431E9841034B4042184010BD0248FCE75B
:10C98000D4A7020016FCFFFF17FCFFFFF0B59D4C7B
:10C990000D00A5440400069396AB1B789A4908A89D
:10C9A00007930592FCF796FE200029001C3009F041
:10C9B00018FB964909A8FCF78DFE95490AA8FCF7D3
:10C9C00089FE0CAE09AA08A90BA809F019FB2A00D8
:10C9D000300011AD0BA909F013FB0AAA31002800A1
:10C9E00009F00EFB290008A809F0FBFA280009F05D
:10C9F00099FA300009F096FA0BA809F093FAC020D2
:10CA0000800000F0B1FE08200CF07CFB0700002144
:10CA100000F09AFD0C22A760002130000CF0C8FB4A
:10CA20002B0007CE07C37B4B2900EB6000233800A7
:10CA30002B610BF037F8A0680BF04BF808220021AF
:10CA4000049012A80CF0B4FB14200CF05BFB724BAA
:10CA50002A0011930300C2CAC2C3704B049FC36073
:10CA60000023A43703613B68002B00D0C3E038608B
:10CA7000A0680BF032F808220021049012A80CF0F4
:10CA800097FB14200CF03EFB654B2A00119303002A
:10CA9000C2CAC2C3634BC36000230361049B1B6B08
:10CAA000002B00D0A9E0049B11AF1863A0680BF025
:10CAB00010F808220021049012A80CF079FB142031
:10CAC0000CF020FB584B1193030046CF46C3574B45
:10CAD000049EC3600023983603613368002B00D0A6
:10CAE0008DE03060012004AB1B7F04AA03430BA937
:10CAF00013770AF06BFDA0680AF0F3FF03684C4956
:10CB00005B6A9847A0680AF0ECFF036849499B6993
:10CB10009847A0680AF0E5FF0021036800911E68AD
:10CB20000A000B00B047079B002B0AD020000AF038
:10CB300015FE032805DDA0680AF0D3FF0368DB6853
:10CB4000984706212000FFF707FF3B4B3B4A1B6835
:10CB5000A16803933A4B28001B6800250293394BC8
:10CB60000CAE1B680193059B1B6804330093364B86
:10CB700012681B68FFF7C6FD30200CF0C3FA069A56
:10CB8000A16800F01BFAA0680AF0A3FF0368310057
:10CB90009B6A98472D4BA0680C93B5800AF099FFCB
:10CBA00003683100DB6A98470621A0680AF0A0FDFF
:10CBB000089A09219378A06804320AF0ACFDA068B5
:10CBC0000AF087FF0571A0680AF083FF3221FFF7A2
:10CBD00037FDA0680AF07DFF0AF074FD0AA809F08D
:10CBE000A1F909A809F09EF908A809F09BF9912379
:10CBF0009B009D44F0BD036139E7036153E7036186
:10CC00006FE7C046BCFDFFFFBFA80200F5A702000A
:10CC1000CDA80200ED7502001DC90100FB750200E0
:10CC2000BDC30100097602003776020017760200C4
:10CC300051CC010085CC01001C25002018250020C6
:10CC400008200020142500200C20002008001000DF
:10CC500013B506226846FCF74DFD094B1C68002CF5
:10CC60000AD0694601A809F0B4F9200001A90AF028
:10CC700095FD01A809F056F9684609F053F913BD6E
:10CC800020250020002373B501AE0C003100050003
:10CC9000019302F0CBFB002802D1B278064B1A7048
:10CCA000064B1868002806D061426141044BC9B2A6
:10CCB0001D800AF07BFD73BD7C2000202025002014
:10CCC0009C27002030B5284CA9B06A220D000DA881
:10CCD00021000CF051FA0DA903A8FCF769FD03A986
:10CCE00006A809F0EAF901230193013BFF3B0093F9
:10CCF0000533FF33642206A92800FDF7BDFF06A80F
:10CD000009F0CEF9210019226A3106A80CF034FA94
:10CD100005220024110006AB04A809F00DFA04A9AD
:10CD200005A809F0CAF9019400942300220005A97E
:10CD30002800FDF70BFF05A809F0B2F92100280033
:10CD4000FDF7C8FF05340520FCF792FAFF2CF5D15A
:10CD5000FA208000FCF78CFA04A809F0A1F903A8D6
:10CD600009F09EF929B030BD51A70200F0B58A4BF9
:10CD70008DB005921A68082304000391D16C07A8AE
:10CD80000B43D3648549FCF7A5FC854908A8FCF74B
:10CD9000A1FC220000251C3207A90BA809F030F9DC
:10CDA00008AA0BA909A809F02BF90BA809F0BAF8F1
:10CDB000631CDD77A0680AF08CFE03685B69984706
:10CDC000A0680AF086FE070006000A371F22290025
:10CDD00038000CF0EDF9FD7730000AF06AFC06210E
:10CDE000A0680AF085FC099A09219378A0680432AA
:10CDF0000AF091FCA0680AF06CFE0571A0680AF0C8
:10CE000068FEC821FFF71CFCA0680AF062FEFF273D
:10CE10002E000581A0680AF05CFE0AF053FC03981E
:10CE2000FDF798FD2000FCF789F903992000FFF732
:10CE300049FF039920000AF0CCFC049501256369A1
:10CE40001D402DD057490AA8FCF730FD0AA90BA8B0
:10CE500009F033F900220BA9130001920092039804
:10CE6000FDF774FE0BA809F01BF9049B002B42D1BF
:10CE7000043F282F41DD0025FE2F00DC049D05988E
:10CE800009F02CFB002806D0012362699A431300A5
:10CE900004221343636100260AA809F001F90495EE
:10CEA00004226369134233D0FF210398C826FDF79B
:10CEB00011FF0025B600A36902229B5EAB4222DD72
:10CEC000200029B2183009F0B1F8002301000398BE
:10CED0001A007430FCF73AFD3000FCF7C9F90398EA
:10CEE00009F003FFC820FCF7C3F90222636913426B
:10CEF00009D10135DFE70437BBE7039809F0F5FEF8
:10CF0000002FBCDDBAE7FA208000FCF7B1F900265B
:10CF1000022365691D421CD006331D4024D02249DE
:10CF20000AA8FCF7C3FC0AA90BA809F0C6F800225E
:10CF30000BA90192009213000398FDF707FE0BA8BE
:10CF400009F0AEF81948FCF793F90AA809F0A8F817
:10CF5000174E6420FCF78CF9164B01369E4200DC1C
:10CF60006CE708F06EFE69E713490AA8FCF79EFC1F
:10CF70000AA90BA809F0A1F82B002A000BA901951A
:10CF800000950398FDF7E2FD0BA809F089F80AA8BF
:10CF900009F086F8DDE7C046A4240020E8A70200D7
:10CFA000CDA80200F8A702003DA80200983A0000B0
:10CFB0008C0A00008B0A00007AA80200F0B5002657
:10CFC0000400724BDDB0083303608160C26086806C
:10CFD000867132006E4947A80AF093FC230014338F
:10CFE0000125042708931223009704950193089ABA
:10CFF000330047A9039602961DA8FFF73DFB3200B8
:10D00000644947A80AF07DFC0C23220000971032E7
:10D0100015AF0495019347A933000396029632A8F1
:10D02000FFF72AFB32005C4938000AF06AFC210055
:10D030001C310991042308210495019100933900C2
:10D040003300099A0396029647A8FFF715FB3200B2
:10D05000524938000AF055FC54200CF053F82100D6
:10D0600012220423183107910495019200930A00BB
:10D0700033003900039602960690FFF7FDFA069AF0
:10D08000474B1000A262D4620AA9082230300A93EA
:10D090000B960CF071F8434B069A09999363293269
:10D0A000157026610422E66107980CF065F80422E9
:10D0B000079908980CF060F8662204ABD218D5776F
:10D0C000BA2204ABD218D577872204AB5200D2180B
:10D0D000D577069A3449931C1DAA0C9232AA0D9258
:10D0E00047AA0E92069ADD770F92A685320010A805
:10D0F0000AF007FC3021452004AA52181378123197
:10D1000004AA3B705218138811397B8204AB102299
:10D11000C918C0180CF030F804230CADA0683B759A
:10D12000BD61BE830AF0D9FC036839001B689847CB
:10D13000822204AB9B181B885432238404AB9B18B7
:10D140001B885432A38404AB9B181B88A06863849B
:10D150000AF0C3FC070014200BF0D4FF0500134BAA
:10D160000661082210C010A9109311960CF004F863
:10D170000F4BEB60BB69B34206D1BD612000FBF7EA
:10D18000DDFF20005DB0F0BD2B61F6E79498020052
:10D19000F8A80200D8A80200E8A8020008A9020026
:10D1A000D57802004178020018A902001DD20100C2
:10D1B0006B780200F0B504000E00150085B01F006A
:10D1C0000CAB1B881030019308F03DFF2680658072
:10D1D00018200BF097FF02AE050033000AAA03CA1D
:10D1E00003C32F602800082700213A000C300BF001
:10D1F000DFFF3A003100281D0BF0BEFF064B022274
:10D200006B61200000230199A5600A43E360A280BE
:10D210002362636205B0F0BD95780200F0B50B891A
:10D220008DB00593CB68050004934B88828C9A429D
:10D230000ED1049C049B059A9B181B1B032B39DD04
:10D2400062882188012308A808F007FF0434F1E769
:10D25000428C9A422ED1049C049B059A9B181B1B5E
:10D26000032B27DD2388282006936388EF68079324
:10D27000114B0893002309930BF044FFC0236A4627
:10D280000600029308AB03CB03C22B000699079A52
:10D290003000FFF78FFF3B6831005B68380098472C
:10D2A000002805D0300008F0F3FD30000BF01BFF24
:10D2B0000434D1E70DB0F0BD5379020070B504001D
:10D2C00090B080680AF040FB022101401AD1A38D82
:10D2D000002B17D00C4B6A4604931023E568A185F8
:10D2E0000591029304AB41CB41C20A00230006A87A
:10D2F000FFF760FF2B6806A99B682800984706A8DF
:10D3000008F0C6FD10B070BD53790200002815D09A
:10D31000006041608260C360046145618661C761ED
:10D32000444604624C464462544684625C46C4628D
:10D33000644604636E46466374468463002A06D0DE
:10D34000C46B043C043A25681560B442F9D18C6B77
:10D35000A6464E6BB546002B06D0CC6B043C043B76
:10D360001D682560B442F9D10C6BA446CC6AA34673
:10D370008C6AA2464C6AA1460C6AA046CF698E69A7
:10D380004D690C69CB688A68086849687047006015
:10D3900041608260C360046145618661C761444643
:10D3A00004624C464462544684625C46C4626446ED
:10D3B00004636E46466374468463C46B043C04395C
:10D3C00025680D60B442F9D1C76986694569046969
:10D3D0007047006041608260C3600461456186619E
:10D3E000C761444604624C464462544684625C46CB
:10D3F000C462644604636C4644637446846304698F
:10D400007047846BA646446BA546046BA446C46A69
:10D41000A346846AA246446AA146046AA046C76934
:10D42000866945690469C368826800684168704715
:10D4300010B5041E0CD00BF0FBFE431EE3189C42FB
:10D4400008D222781978013B21705A700134F6E72E
:10D45000014810BD0020FCE717FCFFFFF0B585B0C8
:10D4600002900C1E2AD00023C217161A56400193B0
:10D47000019B30005D1C63190A215F1E039303F0BA
:10D4800023FE49423031397030000A2103F036FD65
:10D4900047420600002F0FD1029B002B04DA2D23F8
:10D4A000019D039A02351370002320006355FFF796
:10D4B000BFFF380005B0F0BD0195D9E7004FF8E790
:10D4C00017FCFFFF0268084B406810B5C018C00089
:10D4D000101803009A4205D81C688C4202D3180029
:10D4E000083BF7E710BDC046FFFFFF1F70B50028DF
:10D4F00017D1114D2E68002E11D108300BF002FE0D
:10D50000066046600D4E04003368002B02D10AF01D
:10D51000B9FE306023682C609B00F3586360286874
:10D5200070BD0122064907480B681340F8D102601C
:10D5300043600A60F4E7C046282500203425002017
:10D54000242500202C250020002370B50400016054
:10D55000436099420AD1064D2B68002B02D10AF094
:10D5600091FE286023689B00EB586360200070BD2B
:10D5700034250020436810B50400002B02D1044874
:10D580000BF010FC606803681B69984710BDC0462B
:10D5900028A90200436810B50400002B02D10448FA
:10D5A0000BF000FC606803689B69984710BDC0469B
:10D5B00028A90200436810B50400002B02D10448DA
:10D5C0000BF0F0FB606803685B6A984710BDC046CB
:10D5D00028A9020010B5040002F0A6FB034B1B684B
:10D5E000002B01D02000984710BDC0463C250020EC
:10D5F000F0B58BB0050001F059FD002000F072FD80
:10D60000036807001B6998473B6804009B69380062
:10D6100098473B6806005B6A3800984703002888F3
:10D6200010380B2861D803F0D5FB063D6060605AC6
:10D63000606060666078AF88200039000AF0FFFB08
:10D6400022006B7B583201931378A8799C46022301
:10D6500061460B43137004AB1F80012304AA93702F
:10D660001300D070019AE91D9A722B00062216331E
:10D6700005A809930BF080FD29000B2004AB0622BE
:10D680000E31C0180BF078FD94346368A360A06875
:10D6900000282AD0C36804A99847A368002BF4D0B7
:10D6A0001B69F3E720002F49AF880AF0C8FB22006E
:10D6B000022058321378A9798343137004AB1F807A
:10D6C0009970A0346368A360A06800280DD0C36877
:10D6D00004A99847A368002BF4D01B69F3E75B69A2
:10D6E000A888A91D002B00D09847290030000AF017
:10D6F0001FFF0BB0F0BD636E002BF6D0AF79A366B1
:10D70000A06E0028F1D0C36839009847A36E002BA3
:10D7100001D1636EF3E71B69F1E7012269460D272A
:10D72000AB7BEF571A4001925A07920FDB080A723F
:10D730000B730622E91D04A80BF01EFD019A04AB31
:10D74000DA716A46127A9F711A726A46127B200059
:10D750005A722B000F3307938C348030236804A94E
:10D760009847C2E7FFFF00000723D72802D9024BE2
:10D77000186000231800704738250020014B1860FE
:10D780007047C0463C2500201FB58022A323D20548
:10D79000DB00D3580820DB0700D405301C4B48229F
:10D7A0001C4901F0BDFE00280AD080B2002807D134
:10D7B000BFF34F8F184B194ADA60BFF34F8FFEE764
:10D7C000002302A8029301330370154B1B684360CA
:10D7D0000AF08FF9002802D0072005B000BD684686
:10D7E0000AF085F90028F7D169460AF07EF9002889
:10D7F000F2D10C4801F0C4FE80B20028EDD10A48F5
:10D8000001F0C8FE80B20028E7D100F01FF8E4E77D
:10D81000F77A02004025002000ED00E00400FA0540
:10D8200038250020F1D50100D5D5010080B20028AF
:10D8300007D1BFF34F8F034B034ADA60BFF34F8F1B
:10D84000FEE7704700ED00E00400FA051FB5002375
:10D8500002ACA380104B01A80293C8235B00E380B5
:10D86000803BFF3B037005220C490AF050F980B25F
:10D8700000280FD1802080000AF045F980B20028EE
:10D8800008D120000AF041F980B2002802D10AF044
:10D8900038F980B204B010BD280090014BA90200F5
:10D8A000024B0B60092313607047C04651A9020068
:10D8B00010B50400002000F015FC03681B699847B0
:10D8C0000300F3331C7086235B00C050030000216B
:10D8D000044AFC335A61044A99615A62F4300BF0ED
:10D8E000ACF910BDFB7C02000D7D0200012110B5DA
:10D8F000044A080001F01EF80023984200D00B33C0
:10D90000180010BDB1D80100F8B505000400AC3511
:10D910006B68AB60A868002807D0C36821009847EF
:10D92000AB68002BF4D01B69F3E72600B0363568EE
:10D93000002D05D02F6928000BF0D5FB3D00F7E73F
:10D940002200FC2135605832137826000B401370FA
:10D9500023000A365C331D701F22290030000BF0B3
:10D9600027FCF5772A361F22290030000BF020FC17
:10D97000F577606E002804D005690BF0B4FB280031
:10D98000F8E72500983560662868002804D0066905
:10D990000BF0A9FB3000F8E72600A43628603568B4
:10D9A000002D05D02F6928000BF09DFB3D00F7E707
:10D9B0002000356029000C226C300BF0F9FB2000B0
:10D9C000074BE567A36729000C2280300BF0F0FBC2
:10D9D0002300044A8C33903428001A602560F8BD77
:10D9E000ED7C0200DF7C0200F0B593B001900020D6
:10D9F0000C0000F077FB03685B6A984700F072FE4A
:10DA000006AB00280ED000221A7105AA0692082241
:10DA100018001A730AAA9A6000F032FF002803D097
:10DA200013B0F0BD18711873002727732771019B7D
:10DA3000BA331B78BB4242D907237B431A000199B2
:10DA4000BB32CB18BB331B788A180292022B2ED123
:10DA5000002506AE337BAB4223D9AB000393089B72
:10DA6000AA00995802980AF042FF00281CD0B36817
:10DA70009C46AB001900237B614402939A0008681E
:10DA8000A368D050029B01332373337B5A1E954207
:10DA900005D00C481B1860469B001B580B6006AB5A
:10DAA0001A730137FFB2C2E70135EDB2D1E723792E
:10DAB000216802989A00013350502371F1E7002049
:10DAC000AEE7C046FFFFFF3FF0B50A7804009BB009
:10DAD0000D000220012A08D04B88032A07D1A03B61
